:100000000C9459000C9481000C9481000C94810094
:100010000C9481000C9481000C9481000C9481005C
:100020000C9481000C9481000C9481000C9481004C
:100030000C9481000C9481000C9481000C9481003C
:100040000C9401030C9481000C9477020C945102DF
:100050000C9481000C9481000C9481000C9481001C
:100060000C944B030C948100000000002500280034
:100070002B00040404040404040402020202020229
:10008000030303030303010204081020408001025C
:1000900004081020010204081020000000080002DB
:1000A0000100000304070000000000000000960AA1
:1000B000EF0B11241FBECFEFD8E0DEBFCDBF11E0A4
:1000C000A0E0B1E0E6E9FCE102C005900D92A035A8
:1000D000B107D9F724E0A0E5B1E001C01D92A03D31
:1000E000B207E1F710E0C8E5D0E004C02197FE01B7
:1000F0000E942C0CC735D107C9F70E94680B0C94DD
:100100003E0E0C940000CF92DF92EF92FF920F937D
:100110001F93CF93DF936C017A018B01C0E0D0E095
:10012000CE15DF0589F0D8016D918D01D601ED91D5
:10013000FC910190F081E02DC6010995892B11F405
:100140007E0102C02196ECCFC701DF91CF911F91B4
:100150000F91FF90EF90DF90CF900895FC01538DA9
:10016000448D252F30E0842F90E0821B930B541791
:1001700010F0CF96089501970895FC01918D828D1E
:10018000981761F0828DDF01A80FB11D5D968C91EB
:10019000928D9F5F9F73928F90E008958FEF9FEFF6
:1001A0000895FC01918D828D981731F0828DE80FB2
:1001B000F11D858D90E008958FEF9FEF0895FC016C
:1001C000918D228D892F90E0805C9F4F821B910939
:1001D0008F739927089585ED93E00E94DF0021E059
:1001E000892B09F420E0822F0895FC01848DDF0122
:1001F000A80FB11DA35ABF4F2C91848D90E001969A
:100200008F739927848FA689B7892C93A089B18988
:100210008C9180648C93938D848D981306C0028892
:10022000F389E02D80818F7D80830895EF92FF9286
:100230000F931F93CF93DF93EC0181E0888F9B8D09
:100240008C8D981305C0E889F989808185FD24C0CB
:10025000F62E0B8D10E00F5F1F4F0F731127E02E4E
:100260008C8DE8120CC00FB607FCFACFE889F9892B
:10027000808185FFF5CFCE010E94F500F1CF8B8DF7
:10028000FE01E80FF11DE35AFF4FF0820B8FEA8960
:10029000FB898081806207C0EE89FF896083E889DD
:1002A000F98980818064808381E090E0DF91CF9143
:1002B0001F910F91FF90EF900895CF93DF93EC0182
:1002C000888D8823C9F0EA89FB89808185FD05C076
:1002D000A889B9898C9186FD0FC00FB607FCF5CFB0
:1002E000808185FFF2CFA889B9898C9185FFEDCFF8
:1002F000CE010E94F500E7CFDF91CF91089580E015
:1003000090E0892B29F00E94EB0081110C940000F1
:10031000089585ED8093BC008091BC0084FDFCCFE6
:100320001092A603089540918003262F30E0240FF9
:10033000311D21323105DCF42091A6032430C9F4AB
:10034000FC0180E090E0861758F430918003219101
:10035000DC01A25ABC4FA30FB11D2C930196F3CF21
:1003600080918003680F6093800380E0089581E0AE
:10037000089582E0089508958FEF9FEF08958FEF1D
:100380009FEF089580915D0390E09195819591098B
:100390000895CF93DF9300D0CDB7DEB7CB01642FA4
:1003A00049835A830E9493014981842F5A81952F52
:1003B0000F900F90DF91CF910895CF93DF931F920D
:1003C000CDB7DEB7698361E0CE0101960E9493014B
:1003D00081E090E00F90DF91CF9108950F931F93EC
:1003E000CF93DF938C0180E094E00E94320CEC010B
:1003F000892B09F44DC08EE290E00E94320CFC0182
:10040000892B21F4CE010E94C70C42C0D1A7C0A7FE
:100410008BEA95E0092E000CAA0BBB0B808391831D
:10042000A283B383C801110FAA0BBB0B84839583EE
:10043000A683B783CE019C5F092E000CAA0BBB0BD1
:10044000887F80A391A3A2A3B3A38FEA95E0092E8E
:10045000000CAA0BBB0B84A395A3A6A3B7A3A091E2
:10046000C704B091C804B5A7A4A79A968D919C9192
:100470009B9793A782A79A96CD91DC919B97FDA716
:10048000ECA79B96FC93EE939A9781E090E002C0D4
:1004900080E090E0DF91CF911F910F9108950E942D
:1004A000290E1F920F920FB60F9211242F933F9394
:1004B0004F935F936F937F938F939F93AF93BF936C
:1004C000EF93FF9385ED93E00E94F500FF91EF918C
:1004D000BF91AF919F918F917F916F915F914F915C
:1004E0003F912F910F900FBE0F901F9018951F9264
:1004F0000F920FB60F9211242F938F939F93EF9328
:10050000FF93E091E503F091E6038081E091EB0336
:10051000F091EC0382FD12C090818091EE038F5F19
:100520008F732091EF03821751F0E091EE03F0E01A
:10053000EB52FC4F958F8093EE0301C08081FF91B9
:10054000EF919F918F912F910F900FBE0F901F9061
:10055000189590E0FC01E656FF4F3491FC01EA57F4
:10056000FF4F2491FC01EE58FF4FE491EE2309F474
:100570003BC0332339F1333091F038F43130A9F0F6
:10058000323001F584B58F7D12C0373091F03830AC
:10059000A1F03430B9F4809180008F7D03C0809148
:1005A00080008F77809380000DC084B58F7784BDE5
:1005B00009C08091B0008F7703C08091B0008F7D1B
:1005C0008093B000F0E0EE0FFF1FE859FF4FA591B8
:1005D000B4918FB7F894EC91611103C020952E234C
:1005E00001C02E2B2C938FBF08952FB7F8946091E4
:1005F000D1037091D2038091D3039091D4032FBF84
:1006000008951F920F920FB60F9211242F933F93CC
:100610008F939F93AF93BF938091D1039091D20317
:10062000A091D303B091D4033091D00323E0230FE2
:100630002D3720F40196A11DB11D05C026E8230F1A
:100640000296A11DB11D2093D0038093D1039093F6
:10065000D203A093D303B093D4038091CC039091A1
:10066000CD03A091CE03B091CF030196A11DB11D82
:100670008093CC039093CD03A093CE03B093CF038C
:10068000BF91AF919F918F913F912F910F900FBE8E
:100690000F901F9018951F920F920FB60F92112472
:1006A0002F933F934F935F936F937F938F939F937A
:1006B000AF93BF93EF93FF938091B900887F80360B
:1006C00009F49CC068F5883209F45BC090F480316D
:1006D00009F454C038F4882309F4F6C0883009F4CA
:1006E0004DC0F6C0883109F44CC0803209F45DC0B9
:1006F000EFC0803409F468C048F4803309F455C071
:10070000883309F0E5C08093A503D8C0803509F48B
:100710004FC0883509F45DC0883409F0D9C0D6C00F
:10072000883909F4C7C0A8F4883709F467C038F4D9
:10073000883609F463C0803709F460C0C9C08838BE
:1007400009F4B8C0803909F45FC0803809F0C0C02E
:100750005BC0803B09F486C038F4803A09F466C077
:10076000883A09F47FC0B4C0803C09F4A7C0883C33
:1007700009F4A4C0883B09F48AC0AAC08091CB03C5
:1007800010C09091CA038091C903981770F5E09149
:10079000CA0381E08E0F8093CA03F0E0E755FC4F57
:1007A00080818093BB0085EC86C08093A5038EC0BA
:1007B000E091CA0381E08E0F8093CA038091BB0051
:1007C000F0E0E755FC4F80839091CA038091C90304
:1007D0006EC0E091CA0381E08E0F8093CA038091BE
:1007E000BB00F0E0E755FC4F80838091A8038111A6
:1007F0006DC081E08093A70384EA61C083E08093A9
:10080000A6031092A403CFCF8091A403803208F0F6
:1008100051C0E091A40381E08E0F8093A4038091E6
:10082000BB00F0E0EC57FC4F8083BDCF85EC80939C
:10083000BC001092A6038091A403803230F4E091B2
:10084000A403F0E0EC57FC4F10826091A40370E029
:10085000E0918203F091830384E893E0099510927C
:10086000A40336C084E08093A60310928103109203
:100870008003E0917E03F0917F03099580918003CE
:10088000811105C081E08093800310925E03E091A6
:10089000810381E08E0F80938103F0E0E25AFC4FE8
:1008A00080818093BB009091810380918003981791
:1008B00008F479CF85E88093BC000AC085EC80936A
:1008C000BC001092A60304C01092A5030E948901E7
:1008D000FF91EF91BF91AF919F918F917F916F9118
:1008E0005F914F913F912F910F900FBE0F901F90EE
:1008F00018954F925F926F927F928F929F92AF92D4
:10090000BF92CF92DF92EF92FF920F931F93CF93FC
:10091000DF93EC016A017B01280139014230510566
:100920006105710510F480E073C089859A85AB85F7
:10093000BC850196A11DB11D84179507A607B707B1
:1009400090F38B889C88AD88BE888F89803129F48C
:10095000BB27AF2D9E2D8D2D09C0DB01CA0147E0BD
:10096000B695A795979587954A95D1F7880E991EC4
:10097000AA1EBB1E8091000190910101A09102016D
:10098000B091030188169906AA06BB0679F48F89EF
:100990008031A1F4DD24EE24FF24C601880F991FC5
:1009A000FC01EB5AFE4F5182408219C040E0C50164
:1009B000B4010E9417088111EACFB5CFE894C7F8B7
:1009C000DD24EE24FF24C601880F991F880F991F8C
:1009D000FC01EB5AFE4F4082518262827382809109
:1009E00050018160809350018A89823080F08D812E
:1009F0009E81AF81B885880E991EAA1EBB1E80926B
:100A0000510190925201A0925301B092540181E0A1
:100A1000DF91CF911F910F91FF90EF90DF90CF90DA
:100A2000BF90AF909F908F907F906F905F904F900E
:100A300008958F929F92AF92BF92CF92DF92EF92E2
:100A4000FF920F931F93CF93DF93FC0181859285D3
:100A5000A385B4850196A11DB11D84179507A6072E
:100A6000B70710F480E05CC083899489A589B689B2
:100A7000C789C03129F4852E962EA72EBB2409C024
:100A80004A015B01C7E0B694A79497948794CA95EE
:100A9000D1F7E9016A017B018F01BC01CD01680D2D
:100AA000791D8A1D9B1D8090000190900101A090EE
:100AB0000201B0900301681579058A059B0599F438
:100AC000F80187898031A9F4B701A6015527662767
:100AD0007727440F551FFA01EB5AFE4F8081918111
:100AE000A0E0B0E018C040E00E9417088111E8CFF4
:100AF000B9CFB701A6014F77552766277727440F4F
:100B0000551F440F551FFA01EB5AFE4F808191810A
:100B1000A281B381BF7088839983AA83BB8381E05C
:100B2000DF91CF911F910F91FF90EF90DF90CF90C9
:100B3000BF90AF909F908F9008958EBD00000DB430
:100B400007FEFDCF8EB508958FEF0C949D05089597
:100B500080E090E00895EC01FE010995FDCF052CA1
:100B60000895089508950F931F93CF93DF93EB019A
:100B70000E94F5028B010E94A4058F3F49F00E945C
:100B8000F502601B710B6C177D07A8F380E001C0B4
:100B900081E0DF91CF911F910F9108953F924F9285
:100BA0005F926F927F928F929F92AF92BF92CF92FD
:100BB000DF92EF92FF920F931F93CF93DF93CDB706
:100BC000DEB72C970FB6F894DEBF0FBECDBF5C0129
:100BD000DC015B968D909C905C971696CD90DD9095
:100BE000ED90FC901997C114D104E104F10439F09F
:100BF000BFEFCB1ADB0AEB0AFB0A312C07C0F4016A
:100C0000C080D180E280F38033243394F401818565
:100C10009285A385B4859C01AD012F5F3F4F4F4F57
:100C20005F4F29873A874B875C87260137011D82F2
:100C30001E821F821886F40181859285A385B48562
:100C40002D813E814F815885281739074A075B0758
:100C500008F063C089859A85AB85BC858C159D0598
:100C6000AE05BF0550F482E0C82ED12CE12CF12C4A
:100C700092E0492E512C612C712C9E012F5F3F4F29
:100C8000B701A601C4010E941905882309F445C0D3
:100C900089819A81AB81BC81892B8A2B8B2B41F076
:100CA000260137019FEF491A590A690A790A05C0D6
:100CB000C414D504E604F70491F02D813E814F81E0
:100CC00058852F5F3F4F4F4F5F4F2D833E834F839C
:100CD00058873FEFC31AD30AE30AF30AACCF0FEFEA
:100CE0001FEF2FEF3FE0B301A201C4010E9479047E
:100CF000882399F0D50116964D915D916D917C9167
:100D00001997411551056105710549F0930182015B
:100D1000C4010E947904811102C080E02AC0D5017B
:100D200016964D925D926D927C921997332051F0F8
:100D3000D301C2010196A11DB11DF40180839183ED
:100D4000A283B383F5018789908DA18DB28D892B04
:100D50008A2B8B2B69F4D50157964D925D926D923B
:100D60007C925A9714968C911497806814968C9361
:100D700081E02C960FB6F894DEBF0FBECDBFDF9199
:100D8000CF911F910F91FF90EF90DF90CF90BF9088
:100D9000AF909F908F907F906F905F904F903F901B
:100DA000089561E0FC0184810E94A9028091C90438
:100DB00081111092C9040895CF93DF93EC018E81C5
:100DC000882389F08F8198859C012F5F3F4F38875A
:100DD0002F838230924018F40E94A405F3CFCE01F5
:100DE0000E94D1061E82DF91CF910895CF92DF92AB
:100DF000FF920F931F93CF93DF9300D000D0CDB716
:100E0000DEB76C01F62E29833A834B835C830E9404
:100E1000DC068091C90429813A814B815C81811172
:100E200009C081E08093C9049091550380915603D5
:100E30009CBD8DBD60E0F601848129833A834B839C
:100E40005C830E94A9026CE271E0C6010E94B305B6
:100E50008F2D80640E949D0508E110E05C814B812C
:100E60003A812981DA01C901002E04C0B695A795FF
:100E7000979587950A94D2F729833A834B835C83AD
:100E80000E949D050850110929813A814B815C819E
:100E9000083FFFEF1F0731F7FF2029F088E0F81225
:100EA00004C087E803C085E901C08FEF0E949D055B
:100EB00010E00E94A405F601828787FF04C01F3F4F
:100EC00011F01F5FF6CF0F900F900F900F90DF91F2
:100ED000CF911F910F91FF90DF90CF900895EF92E7
:100EE000FF920F931F93CF93DF93EC01790141158C
:100EF00051056105710511F482E13CC08B85833099
:100F000039F089E0440F551F661F771F8A95D1F786
:100F10009A01AB0168E1CE010E94F606882311F028
:100F200084E028C08EEF0E949D0587018EEFF81A9D
:100F3000F80181918F010E949D050E151F05C1F7D3
:100F40008FEF0E949D058FEF0E949D050E94A405D2
:100F50008A878F71853031F081E18D83CE010E94C7
:100F6000D10609C068E572E0CE010E94B305811187
:100F700007C085E18D83CE010E94D10680E013C0B9
:100F800020E030E0A9016DE0CE010E94F60681115B
:100F900004C00E94A405882311F084E1EBCFCE01A8
:100FA0000E94D10681E0DF91CF911F910F91FF90B8
:100FB000EF900895CF93DF9380915001882399F1AA
:100FC000C091CA04D091CB0440910001509101011D
:100FD000609102017091030125E531E0CE010E948C
:100FE0006F07811102C080E01FC0409151015091F4
:100FF00052016091530170915401411551056105F1
:10100000710579F025E531E0CE010E946F07882354
:1010100051F310925101109252011092530110920B
:1010200054011092500181E0DF91CF910895BF9259
:10103000CF92DF92EF92FF920F931F93CF93DF93A4
:101040006B017C01B42E8091000190910101A0916F
:101050000201B09103018C159D05AE05BF0509F491
:1010600076C00E94DA07882309F478C0C091CA04C8
:10107000D091CB048E81882369F088819981AA81DF
:10108000BB81C816D906EA06FB0621F48F81988534
:10109000892BB1F1C882D982EA82FB828B85A701B4
:1010A0009601833039F089E0220F331F441F551F0A
:1010B0008A95D1F761E1CE010E94F606882319F0E6
:1010C00083E08D8337C00E94F5028B010E94A40546
:1010D0008A878F3F49F40E94F502601B710B6D32C5
:1010E0007140A0F38FE003C08E3F31F08DE08D831F
:1010F000CE010E94D1061EC018861F8281E08E8319
:1011000005E511E00E94A405F80181938F01F3E049
:1011100005351F07B9F78F8198859E5F98878F8364
:101120002985222319F08115924048F0CE010E94B2
:10113000DC0605C0CE010E94D10680E00FC0C0923F
:101140000001D0920101E0920201F092030180912E
:101150005001482F4B294093500181E0DF91CF91FE
:101160001F910F91FF90EF90DF90CF90BF90089567
:101170004F925F926F927F928F929F92AF92BF92A7
:10118000EF92FF920F931F93CF93DF9300D000D085
:101190001F92CDB7DEB78C016D83DC0115968C9163
:1011A0001597813009F057C014968C9181FF53C078
:1011B0005AC0038CF48DE02D258530E0275F3F4F2A
:1011C0002A013B01B1E04B1A510861087108022E57
:1011D00004C076946794579447940A94D2F7D50143
:1011E000C4010197A109B10904C0B695A7959795C7
:1011F00087952A95D2F784159505A605B70508F0B9
:1012000070C0F8014789508D618D728D4683578378
:10121000608771872C013D017801E6E0EE0EF11C3C
:10122000D801411451046104710409F464C0169694
:101230004D915D916D917C91199797015B968D9180
:101240009C915C970E941905B1E04B1A5108610806
:1012500071088111E5CF81E090E0F80193838283EA
:1012600080E090E04FC182FF0EC0F80142855385B7
:101270006485758583889488A588B688481559053E
:101280006A057B05F1F4D8011A964D915D916D9137
:101290007C911D975B968D919C915C97FC0174806D
:1012A0007A944A015B0129E0B694A79497948794B5
:1012B0002A95D1F778207A01F1E0FF22772011F109
:1012C00064C081149104A104B10409F072CF1682A4
:1012D000178210861186F8011286138614861586E9
:1012E000D2CF452B462B472B09F48BCF8419950978
:1012F000A609B7098FCF1A968D929D92AD92BC9296
:101300001D97C1CFE114F10409F03FC0F8014681F7
:10131000578160857185411551056105710549F455
:101320008789908DA18DB28D0097A105B10541F5FA
:1013300021C09E012F5F3F4F0E941905882309F4A9
:101340008FCF89819A81AB81BC81F801238D348D47
:10135000F9012789203129F048EF5FEF6FEF7FE037
:1013600004C048EF5FEF60E070E084179507A607C0
:10137000B70730F0C8010E94CE05811106C06BCFBF
:10138000F80186839783A087B187D8015B96ED919A
:10139000FC915C9716968D909D90AD90BC9019979E
:1013A000B2E08B1A9108A108B108058404C0880C2A
:1013B000991CAA1CBB1C0A94D2F786859785A08924
:1013C000B189880E991EAA1EBB1E870C911CA11CF8
:1013D000B11CE114F10409F5F801428553856485D7
:1013E000758583899489A589B689481759076A073D
:1013F0007B0798F00E94DA07882309F42CCF8092AB
:10140000000190920101A0920201B092030180912B
:10141000500181608093500108C041E0C501B401D2
:101420000E941708882309F416CFF701EB5AFE4FE4
:101430008D818083F80182859385A485B585019689
:10144000A11DB11D82879387A487B58743895489DD
:1014500065897689481759076A077B0738F4838BB3
:10146000948BA58BB68B848180688483D801149675
:101470008C9183FD03C081E090E044C0F801958128
:10148000992309F4E8CE87FF38C06685778580897F
:10149000918941E00E941708882309F4DCCED80125
:1014A0005296EC91B0E2EB9F90011124D901AB5A16
:1014B000BE4F109709F4CFCEF8018581823050F4E9
:1014C00043895489658976895C964D935D936D93C4
:1014D0007C935F97F8018789908DA18DB28DF9017A
:1014E000EB5AFE4F938F828FB58BA48BD801149645
:1014F0008C9114978F7714968C930E94DA07811140
:10150000BACFA9CE0F900F900F900F900F90DF9150
:10151000CF911F910F91FF90EF90BF90AF909F9050
:101520008F907F906F905F904F9008951092D803A6
:101530001092D70388EE93E0A0E0B0E08093D90347
:101540009093DA03A093DB03B093DC032EE031E049
:101550003093D6032093D50325EC30E03093E2039B
:101560002093E10324EC30E03093E4032093E30381
:1015700020EC30E03093E6032093E50321EC30E0EB
:101580003093E8032093E70322EC30E03093EA0342
:101590002093E90326EC30E03093EC032093EB0337
:1015A0001092EE031092EF031092F0031092F103E9
:1015B00010927504109274048093760490937704CB
:1015C000A0937804B093790480E291E0909373043F
:1015D0008093720480E58093550310925603109215
:1015E000830410928404109287041092890482E08C
:1015F00090E0A0E0B0E080938A0490938B04A093E5
:101600008C04B0938D041092A1041092AB0410923C
:10161000AA0482E391E09093A9048093A804109215
:10162000AD048EE290E00E94320CFC01009751F074
:1016300093A782A795A784A711A610A69093C80484
:101640008093C704109258031092570310925A03C4
:101650001092590310925C0310925B0365E170E0F5
:1016600080E090E00E945F0D009799F090935803FE
:101670008093570324E130E030935A0320935903B9
:1016800020915B0330915C03232BC1F4FC01108299
:1016900015C08091570390915803009711F00E9454
:1016A000C70C109258031092570310925C031092CB
:1016B0005B0310925A0310925903089524E130E01D
:1016C00030935C0320935B036AE371E00C94370E64
:1016D000789484B5826084BD84B5816084BD85B50D
:1016E000826085BD85B5816085BD80916E00816019
:1016F00080936E00109281008091810082608093BF
:1017000081008091810081608093810080918000C0
:101710008160809380008091B10084608093B100EB
:101720008091B00081608093B00080917A008460E5
:1017300080937A0080917A00826080937A00809111
:101740007A00816080937A0080917A00806880932B
:101750007A001092C100E091E503F091E60382E087
:101760008083E091E103F091E2031082E091E303D2
:10177000F091E4038FEC80831092ED03E091E90394
:10178000F091EA0386E08083E091E703F091E803BB
:10179000808180618083E091E703F091E80380819C
:1017A00088608083E091E703F091E803808180689E
:1017B0008083E091E703F091E80380818F7D80834F
:1017C00082EB95E00E94EE0181EB95E00E94EE0134
:1017D00080EB95E00E94EE010E947F01FDCF809199
:1017E0005703909158030C94C70C2F923F924F923D
:1017F0005F926F927F928F929F92AF92BF92CF92A1
:10180000DF92EF92FF920F931F93CF93DF93CDB7A9
:10181000DEB7CA1BDB0B0FB6F894DEBF0FBECDBF21
:1018200009942A88398848885F846E847D848C84F2
:101830009B84AA84B984C884DF80EE80FD800C81FB
:101840001B81AA81B981CE0FD11D0FB6F894DEBFDE
:101850000FBECDBFED010895EE0FFF1F0590F4916F
:10186000E02D0994CF93DF938230910510F482E04C
:1018700090E0E091CE04F091CF0420E030E0C0E0B1
:10188000D0E0309711F14081518148175907C0F0DD
:101890004817590761F482819381209719F09B833F
:1018A0008A832BC09093CF048093CE0426C0211549
:1018B000310519F04217530718F49A01BE01DF01F0
:1018C000EF010280F381E02DDCCF2115310509F114
:1018D000281B390B2430310590F412968D919C9180
:1018E00013976115710521F0FB019383828304C076
:1018F0009093CF048093CE04FD01329644C0FD0145
:10190000E20FF31F81939193225031092D933C9361
:101910003AC02091CC043091CD04232B41F4209186
:101920000601309107013093CD042093CC0420911F
:101930000401309105012115310541F42DB73EB761
:101940004091080150910901241B350BE091CC0412
:10195000F091CD04E217F307A0F42E1B3F0B2817DC
:10196000390778F0AC014E5F5F4F2417350748F018
:101970004E0F5F1F5093CD044093CC0481939193FD
:1019800002C0E0E0F0E0CF01DF91CF9108950F9326
:101990001F93CF93DF93009709F48CC0FC0132971B
:1019A000138212820091CE041091CF04011511050B
:1019B00081F420813181820F931F2091CC043091DA
:1019C000CD042817390779F5F093CD04E093CC04C2
:1019D00071C0D80140E050E0AE17BF0750F4129636
:1019E0002D913C911397AD012115310509F1D901D4
:1019F000F3CF9D01DA013383228360817181860FE9
:101A0000971F8217930769F4EC0128813981260F0B
:101A1000371F2E5F3F4F318320838A819B819383C1
:101A20008283452B29F4F093CF04E093CE0442C087
:101A30001396FC93EE931297ED01499159919E01F3
:101A4000240F351FE217F30771F480819181840F11
:101A5000951F029611969C938E9382819381139683
:101A60009C938E931297E0E0F0E0D80112968D914E
:101A70009C911397009719F0F8018C01F6CF8D9186
:101A80009C9198012E5F3F4F820F931F2091CC04B1
:101A90003091CD042817390769F4309729F4109252
:101AA000CF041092CE0402C0138212821093CD0490
:101AB0000093CC04DF91CF911F910F910895A0E086
:101AC000B0E0E5E6FDE00C94F90BEC01009721F4A1
:101AD000CB010E94320CB8C0FC01E60FF71F9C013D
:101AE00022503109E217F30708F4ACC0D9010D9177
:101AF0001C91119706171707B0F00530110508F46F
:101B00009FC0C80104978617970708F499C0025030
:101B10001109061B170B019311936D937C93CF0151
:101B20000E94C70C8DC05B01A01AB10A4C01800E47
:101B3000911EA091CE04B091CF0440E050E0E12C82
:101B4000F12C109709F44AC0A815B905D1F56D908C
:101B50007C901197630182E0C80ED11CCA14DB048B
:101B600080F1A3014A195B096A0182E0C80ED11C09
:101B70001296BC9012971396AC91B5E0CB16D10497
:101B800040F0B282A38351834083D9016D937C934B
:101B90000AC00E5F1F4FC301800F911FF90191838F
:101BA0008083EB2DFA2FE114F10431F0D701139665
:101BB000FC93EE93129744C0F093CF04E093CE04CD
:101BC0003FC08D919C9111974817590708F4AC01BB
:101BD0007D0112960D90BC91A02DB3CF8091CC04C5
:101BE0009091CD0488159905E1F446175707C8F47C
:101BF0008091040190910501009741F48DB79EB743
:101C00004091080150910901841B950BE817F907D1
:101C1000C8F4F093CD04E093CC04F90171836083A0
:101C20000FC0CB010E94320C7C01009759F0A80133
:101C3000BE010E942E0ECE010E94C70CC70104C037
:101C4000CE0102C080E090E0CDB7DEB7EEE00C94AC
:101C5000150C81E090E0F8940C943E0EFB01DC0141
:101C600002C001900D9241505040D8F70895FB01F9
:101C7000DC0101900D920020E1F7089510E0C8E525
:101C8000D0E004C0FE010E942C0C2196C935D1077A
:061C9000C9F7F894FFCF34
:101C9600FFFFFFFF0000D0048000000000001601D7
:101CA6008300AE005D01DF00BD00D1000000000032
:101CB600DD01C901A805BB01C201BF01BC010000CD
:101CC6000000B8088300A805A705232320766572BF
:101CD60020302E303120416C7068612023230000B3
:00000001FF
