:100000000C9463000C9492030C946B030C948B007F
:100010000C948B000C948B000C948B000C948B0034
:100020000C948B000C948B000C948B000C948B0024
:100030000C948B000C948B000C948B000C948B0014
:100040000C9421030C948B000C94EF020C94C902C5
:100050000C948B000C948B000C948B000C948B00F4
:100060000C948B000C948B006D5300444247205439
:10007000617264653A200044424720496E696369B1
:10008000616E646F0000000000250028002B000056
:10009000000000240027002A0004040404040404CF
:1000A0000402020202020203030303030301020427
:1000B00008102040800102040810200102040810EA
:1000C0002000B903370511241FBECFEFD8E0DEBFF3
:1000D000CDBF11E0A0E0B1E0E6E8FFE002C005908E
:1000E0000D92A632B107D9F724E0A6E2B1E001C033
:1000F0001D92AA36B207E1F710E0C2E6D0E004C0D4
:100100002197FE010E94A405C136D107C9F70E94BC
:100110009D040C94B6070C9400000F931F93CF938B
:10012000DF938C01C0E0D0E0F801EC0FFD1F64917B
:10013000662371F0E0918B03F0918C030190F081C4
:10014000E02D8BE893E00995892B11F02196ECCFF7
:10015000CE01DF91CF911F910F91089590E0FC01A6
:10016000E355FF4F2491FC01E756FF4F849188230C
:1001700099F090E0880F991FFC01E157FF4FA5917E
:10018000B491FC01EB57FF4F859194918FB7F89490
:10019000EC91E22BEC938FBF0895CF92DF92EF9218
:1001A000FF920F931F93CF93DF936C017A018B0122
:1001B000C0E0D0E0CE15DF0589F0D8016D918D014A
:1001C000D601ED91FC910190F081E02DC6010995D9
:1001D000892B11F47E0102C02196ECCFC701DF917B
:1001E000CF911F910F91FF90EF90DF90CF900895E6
:1001F000089580E090E00895FC01538D448D252FF3
:1002000030E0842F90E0821B930B541710F0CF96B0
:10021000089501970895FC01918D828D981761F0E2
:10022000828DDF01A80FB11D5D968C91928D9F5F2D
:100230009F73928F90E008958FEF9FEF0895FC01D8
:10024000918D828D981731F0828DE80FF11D858D8B
:1002500090E008958FEF9FEF0895FC01918D228D1E
:10026000892F90E0805C9F4F821B91098F739927A3
:1002700008958BE893E00E942D0121E0892B09F479
:1002800020E0822F0895FC01848DDF01A80FB11DAD
:10029000A35ABF4F2C91848D90E001968F739927BC
:1002A000848FA689B7892C93A089B1898C918064A9
:1002B0008C93938D848D981306C00288F389E02D6A
:1002C00080818F7D80830895EF92FF920F931F931B
:1002D000CF93DF93EC0181E0888F9B8D8C8D9813F9
:1002E00005C0E889F989808185FD24C0F62E0B8D33
:1002F00010E00F5F1F4F0F731127E02E8C8DE81257
:100300000CC00FB607FCFACFE889F989808185FF18
:10031000F5CFCE010E944301F1CF8B8DFE01E80F96
:10032000F11DE35AFF4FF0820B8FEA89FB89808130
:10033000806207C0EE89FF896083E889F98980813E
:100340008064808381E090E0DF91CF911F910F91D5
:10035000FF90EF900895CF93DF93EC01888D882371
:10036000C9F0EA89FB89808185FD05C0A889B98922
:100370008C9186FD0FC00FB607FCF5CF808185FFFD
:10038000F2CFA889B9898C9185FFEDCFCE010E946B
:100390004301E7CFDF91CF91089580E090E0892B72
:1003A00029F00E94390181110C94000008953FB793
:1003B000F8948091830390918403A0918503B09178
:1003C000860326B5A89B05C02F3F19F00196A11DF5
:1003D000B11D3FBFBA2FA92F982F8827820F911DDB
:1003E000A11DB11DBC01CD0142E0660F771F881F22
:1003F000991F4A95D1F7089508950F931F93CF93AE
:100400008091800390918103019690938103809362
:100410008003C0917F03CF5FC0937F0380917E03F1
:1004200081110DC00E94D7016093260170932701AE
:10043000809328019093290181E080937E030E949C
:10044000D70120917E0330E0D901AA0FBB1FAA0F6C
:10045000BB1FAA5DBE4F220F331F220F331FF901AE
:10046000EE5DFE4F0081118122813381AB01BC0121
:10047000401B510B620B730B4D935D936D937C93FB
:100480001397C63910F010927F0380912B048F5F71
:1004900080932B04CF911F910F910895CF93DF93F9
:1004A0000E948D00EC0142E050E062E271E08BE8D6
:1004B00093E00E94CD008C0F9D1FDF91CF91089596
:1004C0000E94A1070F931F93CF93DF93EC018881C4
:1004D0009981009729F02A813B812617370788F4F4
:1004E0008B016F5F7F4F0E94D706009761F0998361
:1004F00088831B830A832C813D81232B11F4FC010B
:10050000108281E001C080E0DF91CF911F910F91B7
:100510000895EF92FF920F931F93CF93DF93EC0117
:10052000198218821B821A821D821C826115710534
:1005300049F18B01FB0101900020E9F731977F0120
:10054000E61AF70AB7010E946202288139818111F7
:100550000DC02115310519F0C9010E943F0619820D
:1005600018821D821C821B821A820CC0FD82EC82C2
:10057000B801C901DF91CF911F910F91FF90EF90CA
:100580000C94AF07DF91CF911F910F91FF90EF90E7
:1005900008951F920F920FB60F9211242F933F933D
:1005A0004F935F936F937F938F939F93AF93BF937B
:1005B000EF93FF938BE893E00E944301FF91EF914B
:1005C000BF91AF919F918F917F916F915F914F916B
:1005D0003F912F910F900FBE0F901F9018951F9273
:1005E0000F920FB60F9211242F938F939F93EF9337
:1005F000FF93E0919B03F0919C038081E091A10324
:10060000F091A20382FD12C090818091A4038F5FBC
:100610008F732091A503821751F0E091A403F0E0BD
:10062000E557FC4F958F8093A40301C08081FF9113
:10063000EF919F918F912F910F900FBE0F901F9070
:1006400018951F920F920FB60F9211242F933F937C
:100650008F939F93AF93BF9380918703909188036B
:10066000A0918903B0918A033091820323E0230F84
:100670002D3720F40196A11DB11D05C026E8230FDA
:100680000296A11DB11D209382038093870390934E
:100690008803A0938903B0938A0380918303909188
:1006A0008403A0918503B09186030196A11DB11D1D
:1006B0008093830390938403A0938503B093860370
:1006C000BF91AF919F918F913F912F910F900FBE4E
:1006D0000F901F9018951F920F920FB60F92112432
:1006E0002F933F934F935F936F937F938F939F933A
:1006F000AF93BF93EF93FF93E0910201F091030159
:100700000995FF91EF91BF91AF919F918F917F914B
:100710006F915F914F913F912F910F900FBE0F906E
:100720001F9018951F920F920FB60F9211242F93BE
:100730003F934F935F936F937F938F939F93AF9369
:10074000BF93EF93FF93E0910001F09101010995B0
:10075000FF91EF91BF91AF919F918F917F916F9199
:100760005F914F913F912F910F900FBE0F901F906F
:10077000189510928E0310928D0388EE93E0A0E0FE
:10078000B0E080938F0390939003A0939103B09374
:10079000920384E191E090938C0380938B0385EC2A
:1007A00090E0909398038093970384EC90E090936B
:1007B0009A038093990380EC90E090939C0380933C
:1007C0009B0381EC90E090939E0380939D0382ECC9
:1007D00090E09093A00380939F0386EC90E0909329
:1007E000A2038093A1031092A4031092A503109278
:1007F000A6031092A7033B9A3A9A399A64E271E0F1
:1008000080E694E00E94890286E980935F0464E2B6
:1008100071E082E594E00E9489021092580464E23B
:1008200071E089E594E00E948902E0919B03F091D8
:100830009C0382E08083E0919703F09198031082FB
:10084000E0919903F0919A038DEA80831092A303BB
:10085000E0919F03F091A00386E08083E0919D03E7
:10086000F0919E03808180618083E0919D03F091EF
:100870009E03808188608083E0919D03F0919E03B8
:10088000808180688083E0919D03F0919E03808148
:100890008F7D80838FE080932A0410922B04109226
:1008A0002C0410922D0410922E0410922F048AEF23
:1008B00090E0A0E0B0E08093400490934104A093C6
:1008C0004204B093430488E097E0A0E0B0E0809356
:1008D000440490934504A0934604B09347041092B7
:1008E00048041092490410924A0410924B0410924A
:1008F0004C0410924D0410924E0410924F0410922A
:100900005004109251048CE0809329048DE280936E
:100910002804E0912F04E23078F4F0E0E95FFE4F24
:1009200080810E94AE00E0912F04F0E0EC5FFE4F6A
:1009300080810E94AE00EDCF0895CF93DF93CDB7B5
:10094000DEB7A1970FB6F894DEBF0FBECDBF789487
:1009500084B5826084BD84B5816084BD85B58260C4
:1009600085BD85B5816085BD80916E008160809375
:100970006E001092810080918100826080938100DE
:1009800080918100816080938100809180008160EE
:10099000809380008091B10084608093B100809149
:1009A000B00081608093B00080917A008460809371
:1009B0007A0080917A00826080937A0080917A0038
:1009C000816080937A0080917A00806880937A00B9
:1009D0001092C10087E790E00E944E028DEF91E0F7
:1009E0009093010180930001809169008C7F816068
:1009F00080936900E89A8BE690E00E948D008FB7A3
:100A0000F894209187033091880340918903509195
:100A10008A038FBF19A28E010F5D1F4F8AE0C82E77
:100A2000D12CE12CF12CCA01B901A70196010E9439
:100A30008205605DF80162938F0121153105410542
:100A4000510589F7309761F001900020E9F731975F
:100A5000AF01401B510BB8018BE893E00E94CD0021
:100A600088E690E00E944E020E94CD01FDCFCF9318
:100A7000DF93C2E5D4E08F8198850E943F0688818C
:100A800099810E943F068091600490916104DF91FA
:100A9000CF910C943F062F923F924F925F926F92AC
:100AA0007F928F929F92AF92BF92CF92DF92EF92FE
:100AB000FF920F931F93CF93DF93CDB7DEB7CA1B7F
:100AC000DB0B0FB6F894DEBF0FBECDBF09942A88AA
:100AD000398848885F846E847D848C849B84AA8452
:100AE000B984C884DF80EE80FD800C811B81AA81DF
:100AF000B981CE0FD11D0FB6F894DEBF0FBECDBFAA
:100B0000ED010895A1E21A2EAA1BBB1BFD010DC029
:100B1000AA1FBB1FEE1FFF1FA217B307E407F507AD
:100B200020F0A21BB30BE40BF50B661F771F881F89
:100B3000991F1A9469F760957095809590959B011F
:100B4000AC01BD01CF010895EE0FFF1F0590F49198
:100B5000E02D0994CF93DF938230910510F482E069
:100B600090E0E0916804F091690420E030E0C0E09A
:100B7000D0E0309711F14081518148175907C0F0FA
:100B80004817590761F482819381209719F09B835C
:100B90008A832BC0909369048093680426C0211532
:100BA000310519F04217530718F49A01BE01DF010D
:100BB000EF010280F381E02DDCCF2115310509F131
:100BC000281B390B2430310590F412968D919C919D
:100BD00013976115710521F0FB019383828304C093
:100BE0009093690480936804FD01329644C0FD012E
:100BF000E20FF31F81939193225031092D933C937F
:100C00003AC02091660430916704232B41F420916F
:100C10000C0130910D0130936704209366042091FC
:100C20000A0130910B012115310541F42DB73EB772
:100C300040910E0150910F01241B350BE091660489
:100C4000F0916704E217F307A0F42E1B3F0B28175F
:100C5000390778F0AC014E5F5F4F2417350748F035
:100C60004E0F5F1F509367044093660481939193E6
:100C700002C0E0E0F0E0CF01DF91CF9108950F9343
:100C80001F93CF93DF93009709F48CC0FC01329738
:100C900013821282009168041091690401151105F4
:100CA00081F420813181820F931F2091660430915D
:100CB00067042817390779F5F0936704E093660411
:100CC00071C0D80140E050E0AE17BF0750F4129653
:100CD0002D913C911397AD012115310509F1D901F1
:100CE000F3CF9D01DA013383228360817181860F06
:100CF000971F8217930769F4EC0128813981260F29
:100D0000371F2E5F3F4F318320838A819B819383DE
:100D10008283452B29F4F0936904E093680442C070
:100D20001396FC93EE931297ED01499159919E0110
:100D3000240F351FE217F30771F480819181840F2E
:100D4000951F029611969C938E93828193811396A0
:100D50009C938E931297E0E0F0E0D80112968D916B
:100D60009C911397009719F0F8018C01F6CF8D91A3
:100D70009C9198012E5F3F4F820F931F2091660434
:100D8000309167042817390769F4309729F41092D5
:100D900069041092680402C01382128210936704DF
:100DA00000936604DF91CF911F910F910895A0E009
:100DB000B0E0EDEDF6E00C944F05EC01009721F466
:100DC000CB010E94AA05B8C0FC01E60FF71F9C01E9
:100DD00022503109E217F30708F4ACC0D9010D9194
:100DE0001C91119706171707B0F00530110508F48C
:100DF0009FC0C80104978617970708F499C002504E
:100E00001109061B170B019311936D937C93CF016E
:100E10000E943F068DC05B01A01AB10A4C01800EF2
:100E2000911EA0916804B091690440E050E0E12C6B
:100E3000F12C109709F44AC0A815B905D1F56D90A9
:100E40007C901197630182E0C80ED11CCA14DB04A8
:100E500080F1A3014A195B096A0182E0C80ED11C26
:100E60001296BC9012971396AC91B5E0CB16D104B4
:100E700040F0B282A38351834083D9016D937C9368
:100E80000AC00E5F1F4FC301800F911FF9019183AC
:100E90008083EB2DFA2FE114F10431F0D701139682
:100EA000FC93EE93129744C0F0936904E0936804B6
:100EB0003FC08D919C9111974817590708F4AC01D8
:100EC0007D0112960D90BC91A02DB3CF8091660448
:100ED0009091670488159905E1F446175707C8F4FF
:100EE00080910A0190910B01009741F48DB79EB754
:100EF00040910E0150910F01841B950BE817F907E3
:100F0000C8F4F0936704E0936604F9017183608389
:100F10000FC0CB010E94AA057C01009759F0A801DF
:100F2000BE010E94A607CE010E943F06C70104C071
:100F3000CE0102C080E090E0CDB7DEB7EEE00C94C9
:100F40006B0581E090E0F8940C94B607FB01DC019E
:100F500002C001900D9241505040D8F70895FB0116
:100F6000DC0101900D920020E1F7089510E0C2E647
:100F7000D0E004C0FE010E94A4052196C336D1072B
:060F8000C9F7F894FFCF51
:100F8600FC01FC0107080901050600006A0480004F
:100F9600000000006401CD00FC00AB012D010B0137
:060FA6001F010D0A00000E
:107800000C94343C0C94513C0C94513C0C94513CE1
:107810000C94513C0C94513C0C94513C0C94513CB4
:107820000C94513C0C94513C0C94513C0C94513CA4
:107830000C94513C0C94513C0C94513C0C94513C94
:107840000C94513C0C94513C0C94513C0C94513C84
:107850000C94513C0C94513C0C94513C0C94513C74
:107860000C94513C0C94513C11241FBECFEFD8E036
:10787000DEBFCDBF11E0A0E0B1E0ECE9FFE702C060
:1078800005900D92A230B107D9F712E0A2E0B1E065
:1078900001C01D92AD30B107E1F70E942D3D0C945F
:1078A000CC3F0C94003C982F959595959595959582
:1078B000905D8F708A307CF0282F295A8091C0000B
:1078C00085FFFCCF9093C6008091C00085FFFCCF60
:1078D0002093C6000895282F205DF0CF982F809127
:1078E000C00085FFFCCF9093C6000895EF92FF92F1
:1078F0000F931F93EE24FF2487018091C00087FD22
:1079000017C00894E11CF11C011D111D81E4E8164B
:1079100082E4F8068FE0080780E0180770F3E09132
:107920000401F091050109958091C00087FFE9CF1E
:107930008091C6001F910F91FF90EF9008950E94D3
:10794000763C982F8091C00085FFFCCF9093C600B5
:1079500091362CF490330CF09053892F089597555D
:10796000892F08951F930E949F3C182F0E949F3CCF
:107970001295107F810F1F9108951F93182F882350
:1079800021F00E94763C1150E1F71F9108951F935A
:10799000182F0E94763C803249F0809103018F5F5E
:1079A000809303018530C1F01F9108958091C0003C
:1079B00085FFFCCF84E18093C6008091C00085FFE5
:1079C000FCCF1093C6008091C00085FFFCCF80E102
:1079D0008093C6001F910895E0910401F091050184
:1079E00009951F9108950E94763C803241F0809164
:1079F00003018F5F80930301853081F008958091AA
:107A0000C00085FFFCCF84E18093C6008091C00058
:107A100085FFFCCF80E18093C6000895E0910401CA
:107A2000F09105010995089540E951E08823A1F0FE
:107A30002D9A28EE33E0FA013197F1F721503040CA
:107A4000D1F72D9828EE33E0FA013197F1F7215064
:107A50003040D1F7815061F708953F924F925F9285
:107A60006F927F928F929F92AF92BF92CF92DF924E
:107A7000EF92FF920F931F93CF93DF93000080E16B
:107A80008093C4001092C50088E18093C10086E015
:107A90008093C2005098589A259A81E00E94143D24
:107AA00024E1F22E9EE1E92E85E9D82E0FE0C02ECA
:107AB00010E1B12EAA24A394B1E49B2EA6E58A2E50
:107AC000F2E57F2EE0E26E2E79E4572E63E5462E36
:107AD00050E5352E0E94763C8033B1F18133B9F107
:107AE000803409F46FC0813409F476C0823409F41B
:107AF00085C0853409F488C0803531F1823521F1A3
:107B0000813511F1853509F485C0863509F48DC0BC
:107B1000843609F496C0843709F403C1853709F423
:107B200072C1863709F466C0809103018F5F80932C
:107B30000301853079F6E0910401F0910501099582
:107B40000E94763C803351F60E94F33CC3CF0E94E2
:107B5000763C803249F78091C00085FFFCCFF092DF
:107B6000C6008091C00085FFFCCF9092C600809136
:107B7000C00085FFFCCF8092C6008091C00085FFC9
:107B8000FCCF7092C6008091C00085FFFCCF609250
:107B9000C6008091C00085FFFCCF5092C600809146
:107BA000C00085FFFCCF4092C6008091C00085FFD9
:107BB000FCCF3092C6008091C00085FFFCCFB09210
:107BC000C60088CF0E94763C863808F4BDCF0E945C
:107BD000763C0E94F33C7ECF0E94763C803809F4CC
:107BE0009CC0813809F40BC1823809F43CC1883942
:107BF00009F48FC080E00E94C73C6CCF84E10E94F2
:107C0000BD3C0E94F33C66CF85E00E94BD3C0E94D3
:107C1000F33C60CF0E94763C809306010E94763C44
:107C2000809307010E94F33C55CF0E94763C80333D
:107C300009F41DC183E00E94BD3C80E00E94C73C66
:107C400049CF0E94763C809309020E94763C809343
:107C5000080280910C028E7F80930C020E94763C79
:107C6000853409F415C18091080290910902892B8D
:107C700089F000E010E00E94763CF801E85FFE4FDA
:107C800080830F5F1F4F80910802909109020817AF
:107C9000190788F30E94763C803209F045CF809125
:107CA0000C0280FF01C16091060170910701660F0F
:107CB000771F7093070160930601A0910802B091AD
:107CC00009021097C9F0E8E0F1E09B01AD014E0F09
:107CD0005F1FF999FECF32BD21BD819180BDFA9A17
:107CE000F99A2F5F3F4FE417F50799F76A0F7B1F4B
:107CF00070930701609306018091C00085FFFCCF5F
:107D0000F092C6008091C00085FFFCCFB092C60003
:107D1000E1CE83E00E94C73CDDCE82E00E94C73CFA
:107D2000D9CE0E94763C809309020E94763C8093D3
:107D300008028091060190910701880F991F909386
:107D40000701809306010E94763C853409F4A6C0A1
:107D500080910C028E7F80930C020E94763C8032D0
:107D600009F0B8CE8091C00085FFFCCFF092C6002C
:107D7000609108027091090261157105B9F140E046
:107D800050E080910C02A82FA170B82FB27011C0E2
:107D9000BB2309F45CC0E0910601F0910701319624
:107DA000F0930701E09306014F5F5F4F46175707B7
:107DB000E8F4AA2369F3F999FECF209106013091E6
:107DC000070132BD21BDF89A90B58091C00085FFB2
:107DD000FCCF9093C6002F5F3F4F30930701209355
:107DE00006014F5F5F4F4617570718F38091C00099
:107DF00085FDE5CE8091C00085FFF8CFE0CE81E023
:107E00000E94C73C67CE0E94763C803209F08CCE3F
:107E10008091C00085FFFCCFF092C6008091C00029
:107E200085FFFCCFE092C6008091C00085FFFCCFAB
:107E3000D092C6008091C00085FFFCCFC092C600E2
:107E40008091C00085FFFCCFB092C60043CEE09188
:107E50000601F091070194918091C00085FFFCCF4D
:107E60009093C6009CCF80E10E94C73C33CE0E9415
:107E7000763C0E94763C182F0E94763C112309F430
:107E800083C0113009F484C08FE00E94C73C22CE29
:107E900080910C02816080930C02E5CE80910C02EF
:107EA000816080930C0259CF809107018823880F4D
:107EB000880B8A2180930B02809106019091070123
:107EC000880F991F90930701809306018091080203
:107ED00080FF09C080910802909109020196909359
:107EE000090280930802F894F999FECF1127E091D6
:107EF0000601F0910701C8E0D1E08091080290915D
:107F00000902103091F40091570001700130D9F34B
:107F100003E000935700E89500915700017001308D
:107F2000D9F301E100935700E89509901990009169
:107F3000570001700130D9F301E000935700E89534
:107F40001395103498F011270091570001700130FB
:107F5000D9F305E000935700E895009157000170B0
:107F60000130D9F301E100935700E895329602976A
:107F700009F0C7CF103011F00296E5CF112480919F
:107F8000C00085FFB9CEBCCE8EE10E94C73CA2CD19
:0C7F900085E90E94C73C9ECDF894FFCF0D
:027F9C00800063
:040000030000780081
:00000001FF