:100000000C9463000C9407040C94E0030C948B0094
:100010000C948B000C948B000C948B000C948B0034
:100020000C948B000C948B000C948B000C948B0024
:100030000C948B000C948B000C948B000C948B0014
:100040000C9496030C948B000C9464030C943E0364
:100050000C948B000C948B000C948B000C948B00F4
:100060000C948B000C948B006D5300444247205439
:10007000617264653A200044424720496E696369B1
:10008000616E646F0000000000250028002B000056
:10009000000000240027002A0004040404040404CF
:1000A0000402020202020203030303030301020427
:1000B00008102040800102040810200102040810EA
:1000C00020002E04580611241FBECFEFD8E0DEBF5B
:1000D000CDBF11E0A0E0B1E0ECE7F6E102C0059091
:1000E0000D92A632B107D9F722E0A6E2B1E001C035
:1000F0001D92A432B207E1F710E0C2E6D0E004C0DE
:100100002197FE010E941F09C136D107C9F70E943D
:1001100017050C94310B0C9400000F931F93CF9391
:10012000DF938C01C0E0D0E0F801EC0FFD1F64917B
:10013000662371F0E0914501F09146010190F08154
:10014000E02D85E491E00995892B11F02196ECCF03
:10015000CE01DF91CF911F910F91089590E0FC01A6
:10016000E355FF4F2491FC01E756FF4F849188230C
:1001700099F090E0880F991FFC01E157FF4FA5917E
:10018000B491FC01EB57FF4F859194918FB7F89490
:10019000EC91E22BEC938FBF0895CF92DF92EF9218
:1001A000FF920F931F93CF93DF936C017A018B0122
:1001B000C0E0D0E0CE15DF0589F0D8016D918D014A
:1001C000D601ED91FC910190F081E02DC6010995D9
:1001D000892B11F47E0102C02196ECCFC701DF917B
:1001E000CF911F910F91FF90EF90DF90CF900895E6
:1001F000089580E090E00895FC01538D448D252FF3
:1002000030E0842F90E0821B930B541710F0CF96B0
:10021000089501970895FC01918D828D981761F0E2
:10022000828DDF01A80FB11D5D968C91928D9F5F2D
:100230009F73928F90E008958FEF9FEF0895FC01D8
:10024000918D828D981731F0828DE80FF11D858D8B
:1002500090E008958FEF9FEF0895FC01918D228D1E
:10026000892F90E0805C9F4F821B91098F739927A3
:10027000089585E491E00E942D0121E0892B09F485
:1002800020E0822F0895FC01848DDF01A80FB11DAD
:10029000A35ABF4F2C91848D90E001968F739927BC
:1002A000848FA689B7892C93A089B1898C918064A9
:1002B0008C93938D848D981306C00288F389E02D6A
:1002C00080818F7D80830895EF92FF920F931F931B
:1002D000CF93DF93EC0181E0888F9B8D8C8D9813F9
:1002E00005C0E889F989808185FD24C0F62E0B8D33
:1002F00010E00F5F1F4F0F731127E02E8C8DE81257
:100300000CC00FB607FCFACFE889F989808185FF18
:10031000F5CFCE010E944301F1CF8B8DFE01E80F96
:10032000F11DE35AFF4FF0820B8FEA89FB89808130
:10033000806207C0EE89FF896083E889F98980813E
:100340008064808381E090E0DF91CF911F910F91D5
:10035000FF90EF900895CF93DF93EC01888D882371
:10036000C9F0EA89FB89808185FD05C0A889B98922
:100370008C9186FD0FC00FB607FCF5CF808185FFFD
:10038000F2CFA889B9898C9185FFEDCFCE010E946B
:100390004301E7CFDF91CF91089580E090E0892B72
:1003A00029F00E94390181110C94000008953FB793
:1003B000F89480913C0190913D01A0913E01B09153
:1003C0003F0126B5A89B05C02F3F19F00196A11D3E
:1003D000B11D3FBFBA2FA92F982F8827820F911DDB
:1003E000A11DB11DBC01CD0142E0660F771F881F22
:1003F000991F4A95D1F7089508958F929F92AF92D1
:10040000BF92CF92DF92EF92FF92CF93809139010A
:1004100090913A01019690933A018093390180912D
:1004200038018F5F809338018091440181119CC015
:100430008091370181110EC00E94D70160932E0177
:1004400070932F01809330019093310181E080936C
:10045000370184C080913601882359F10E94D70169
:10046000609332017093330180933401909335018E
:10047000C0902E01D0902F01E0903001F09031011A
:100480009B01AC012C193D094E095F0920932A01FB
:1004900030932B0140932C0150932D0160932E013A
:1004A00070932F01809330019093310110923601A7
:1004B00055C00E94D701609332017093330180933D
:1004C000340190933501C0902E01D0902F01E0901F
:1004D0003001F09031014B015C018C189D08AE0891
:1004E000BF088092260190922701A0922801B09225
:1004F000290160932E0170932F0180933001909316
:100500003101C1E0C093360160912A0170912B0145
:1005100080912C0190912D010E946C066B017C0151
:10052000C501B4010E946C064B015C0123E333E377
:1005300043E150E4C701B6010E9451089B01AC01A0
:10054000C701B6010E94E5079B01AC01C501B401DA
:100550000E94F208181614F4C093440110923A0154
:1005600010923901109238018091E5018F5F8093DC
:10057000E501CF91FF90EF90DF90CF90BF90AF90CB
:100580009F908F900895CF93DF930E948D00EC0190
:1005900042E050E062E271E085E491E00E94CD002B
:1005A0008C0F9D1FDF91CF9108950E941C0B0F931C
:1005B0001F93CF93DF93EC0188819981009729F0F5
:1005C0002A813B812617370788F48B016F5F7F4FA5
:1005D0000E94520A009761F0998388831B830A83E3
:1005E0002C813D81232B11F4FC01108281E001C09C
:1005F00080E0DF91CF911F910F910895EF92FF92CC
:100600000F931F93CF93DF93EC01198218821B8203
:100610001A821D821C826115710549F18B01FB0153
:1006200001900020E9F731977F01E61AF70AB70138
:100630000E94D7022881398181110DC02115310511
:1006400019F0C9010E94BA09198218821D821C8200
:100650001B821A820CC0FD82EC82B801C901DF91B5
:10066000CF911F910F91FF90EF900C942A0BDF9187
:10067000CF911F910F91FF90EF9008951F920F92CD
:100680000FB60F9211242F933F934F935F936F9365
:100690007F938F939F93AF93BF93EF93FF9385E4E3
:1006A00091E00E944301FF91EF91BF91AF919F9123
:1006B0008F917F916F915F914F913F912F910F900B
:1006C0000FBE0F901F9018951F920F920FB60F92AA
:1006D00011242F938F939F93EF93FF93E0915501F4
:1006E000F09156018081E0915B01F0915C0182FD07
:1006F00012C0908180915E018F5F8F7320915F01A6
:10070000821751F0E0915E01F0E0EB5BFE4F958FB8
:1007100080935E0101C08081FF91EF919F918F9145
:100720002F910F900FBE0F901F9018951F920F9250
:100730000FB60F9211242F933F938F939F93AF93F4
:10074000BF938091400190914101A0914201B091ED
:10075000430130913B0123E0230F2D3720F4019614
:10076000A11DB11D05C026E8230F0296A11DB11DD4
:1007700020933B018093400190934101A09342015B
:10078000B093430180913C0190913D01A0913E01C5
:10079000B0913F010196A11DB11D80933C01909342
:1007A0003D01A0933E01B0933F01BF91AF919F9156
:1007B0008F913F912F910F900FBE0F901F90189522
:1007C0001F920F920FB60F9211242F933F934F93C6
:1007D0005F936F937F938F939F93AF93BF93EF93A9
:1007E000FF93E0910201F09103010995FF91EF91D0
:1007F000BF91AF919F918F917F916F915F914F9139
:100800003F912F910F900FBE0F901F9018951F9240
:100810000F920FB60F9211242F933F934F935F9334
:100820006F937F938F939F93AF93BF93EF93FF93B8
:10083000E0910001F09101010995FF91EF91BF91C5
:10084000AF919F918F917F916F915F914F913F9168
:100850002F910F900FBE0F901F9018951092480186
:100860001092470188EE93E0A0E0B0E08093490148
:1008700090934A01A0934B01B0934C0184E191E025
:10088000909346018093450185EC90E0909352014E
:100890008093510184EC90E0909354018093530134
:1008A00080EC90E0909356018093550181EC90E0AC
:1008B000909358018093570182EC90E090935A01F5
:1008C0008093590186EC90E090935C0180935B01EA
:1008D00010925E0110925F0110926001109261010E
:1008E0003B9A3A9A399A64E271E08AE192E00E9476
:1008F000FE028CE38093190264E271E08CE092E0E6
:100900000E94FE021092120264E271E083E192E022
:100910000E94FE02E0915501F091560182E0808331
:10092000E0915101F09152011082E0915301F09158
:1009300054018DEA808310925D01E0915901F0919C
:100940005A0186E08083E0915701F091580180813F
:1009500080618083E0915701F09158018081886027
:100960008083E0915701F0915801808180688083F5
:10097000E0915701F091580180818F7D80838FE055
:100980008093E4011092E5011092E6011092E701D4
:100990001092E8011092E9018AEF90E0A0E0B0E047
:1009A0008093FA019093FB01A093FC01B093FD01A9
:1009B00088E097E0A0E0B0E08093FE019093FF0113
:1009C000A0930002B093010210920202109203025F
:1009D0001092040210920502109206021092070271
:1009E000109208021092090210920A0210920B0251
:1009F0008CE08093E3018DE28093E201E091E901D4
:100A0000E230A0F4F0E0E95FFE4F80810E94AE008A
:100A1000E091E901F0E0EC5FFE4F80810E94AE00C2
:100A20008091E9018F5F8093E901E8CF0895CF932A
:100A3000DF93CDB7DEB7A1970FB6F894DEBF0FBE38
:100A4000CDBF789484B5826084BD84B5816084BD57
:100A500085B5826085BD85B5816085BD80916E005C
:100A6000816080936E00109281008091810082608D
:100A700080938100809181008160809381008091CA
:100A800080008160809380008091B10084608093B9
:100A9000B1008091B00081608093B00080917A00B5
:100AA000846080937A0080917A00826080937A00DB
:100AB00080917A00816080937A0080917A008068CA
:100AC00080937A001092C10087E790E00E94C302F1
:100AD0008DEF91E090930101809300018091690076
:100AE0008C7F816080936900E89A8BE690E00E9499
:100AF0008D008FB7F89420914001309141014091D1
:100B00004201509143018FBF19A28E010F5D1F4F0B
:100B10009AE0C92ED12CE12CF12CCA01B901A70110
:100B200096010E94C207605DF80162938F01211552
:100B300031054105510589F7309761F0019000209A
:100B4000E9F73197AF01401B510BB80185E491E003
:100B50000E94CD0088E690E00E94C30208E611E002
:100B6000DD24D394EE24E394F12C80914401882376
:100B700009F49BC06091190270E0C8010E94F70857
:100B8000072E000C880B990B0E946E0620E030E0C7
:100B900040E450E40E94CD060E94C308B62E809126
:100BA000E50190E02091E20130E04091E301241B57
:100BB0003109821793078CF02BB1E091E701F0E047
:100BC000EE51FE4FC701008402C0880F991F0A949E
:100BD000E2F7822B8BB9D0920A020E94D701409093
:100BE0000202509003026090040270900502AB0173
:100BF000BC0144195509660977098B2D90E0A0E0E6
:100C0000B0E0481759076A077B07D8F080910A02BD
:100C10008823B9F08BB18BB98091E7018F5F809306
:100C2000E7011092E501843010F01092E7010E9474
:100C3000D7016093020270930302809304029093A1
:100C4000050285E491E00E942D01892B71F185E474
:100C500091E00E940B01C82E89831A82A090100295
:100C6000B0901102FFEFAF1ABF0AB5018CE092E01D
:100C70000E94D702882399F020910C0230910D0236
:100C80008091100290911102BE016F5F7F4F820F21
:100C9000931F0E942A0BB0921102A09210028AE0C8
:100CA000C812CFCFD0921202CCCF0E94CD015DCF1F
:100CB000CF93DF93CCE0D2E08F8198850E94BA0970
:100CC000888199810E94BA0980911A0290911B0231
:100CD000DF91CF910C94BA09E89409C097FB3EF4D8
:100CE00090958095709561957F4F8F4F9F4F992379
:100CF000A9F0F92F96E9BB279395F69587957795F7
:100D00006795B795F111F8CFFAF4BB0F11F460FFB6
:100D10001BC06F5F7F4F8F4F9F4F16C0882311F00E
:100D200096E911C0772321F09EE8872F762F05C022
:100D3000662371F096E8862F70E060E02AF09A95BD
:100D4000660F771F881FDAF7880F9695879597F9B2
:100D50000895990F0008550FAA0BE0E8FEEF16164C
:100D60001706E807F907C0F012161306E407F5079F
:100D700098F0621B730B840B950B39F40A2661F013
:100D8000232B242B252B21F408950A2609F4A140B6
:100D9000A6958FEF811D811D08950E94E0060C9499
:100DA00051070E94430738F00E944A0720F095231C
:100DB00011F00C943A070C94400711240C94850709
:100DC0000E94620770F3959FC1F3950F50E0551F85
:100DD000629FF001729FBB27F00DB11D639FAA2790
:100DE000F00DB11DAA1F649F6627B00DA11D661FDF
:100DF000829F2227B00DA11D621F739FB00DA11D00
:100E0000621F839FA00D611D221F749F3327A00DB9
:100E1000611D231F849F600D211D822F762F6A2F55
:100E200011249F5750409AF0F1F088234AF0EE0FBA
:100E3000FF1FBB1F661F771F881F91505040A9F7E7
:100E40009E3F510580F00C943A070C9485075F3F54
:100E5000E4F3983ED4F3869577956795B795F79523
:100E6000E7959F5FC1F7FE2B880F911D969587959B
:100E700097F9089597F99F6780E870E060E008951A
:100E80009FEF80EC089500240A94161617061806A2
:100E90000906089500240A9412161306140605067E
:100EA0000895092E0394000C11F4882352F0BB0F0F
:100EB00040F4BF2B11F460FF04C06F5F7F4F8F4F72
:100EC0009F4F089557FD9058440F551F59F05F3FAD
:100ED00071F04795880F97FB991F61F09F3F79F05C
:100EE00087950895121613061406551FF2CF4695DE
:100EF000F1DF08C0161617061806991FF1CF869560
:100F00007105610508940895E894BB276627772743
:100F1000CB0197F908952F923F924F925F926F9273
:100F20007F928F929F92AF92BF92CF92DF92EF9279
:100F3000FF920F931F93CF93DF93CDB7DEB7CA1BFA
:100F4000DB0B0FB6F894DEBF0FBECDBF09942A8825
:100F5000398848885F846E847D848C849B84AA84CD
:100F6000B984C884DF80EE80FD800C811B81AA815A
:100F7000B981CE0FD11D0FB6F894DEBF0FBECDBF25
:100F8000ED010895A1E21A2EAA1BBB1BFD010DC0A5
:100F9000AA1FBB1FEE1FFF1FA217B307E407F50729
:100FA00020F0A21BB30BE40BF50B661F771F881F05
:100FB000991F1A9469F760957095809590959B019B
:100FC000AC01BD01CF0108955058BB27AA270E944C
:100FD000FC070C9451070E94430738F00E944A070F
:100FE00020F039F49F3F19F426F40C9440070EF4D6
:100FF000E095E7FB0C943A07E92F0E94620758F34B
:10100000BA17620773078407950720F079F4A6F5ED
:101010000C9484070EF4E0950B2EBA2FA02D0B0133
:10102000B90190010C01CA01A0011124FF27591B2D
:1010300099F0593F50F4503E68F11A16F040A22F33
:10104000232F342F4427585FF3CF469537952795A4
:10105000A795F0405395C9F77EF41F16BA0B620BA3
:10106000730B840BBAF09150A1F0FF0FBB1F661FEA
:10107000771F881FC2F70EC0BA0F621F731F841F2D
:1010800048F4879577956795B795F7959E3F08F053
:10109000B0CF9395880F08F09927EE0F9795879515
:1010A00008950E9465080C9451070E944A0758F061
:1010B0000E94430740F029F45F3F29F00C943A075F
:1010C00051110C9485070C9440070E94620768F345
:1010D0009923B1F3552391F3951B550BBB27AA27F1
:1010E00062177307840738F09F5F5F4F220F331F2B
:1010F000441FAA1FA9F335D00E2E3AF0E0E832D0F3
:1011000091505040E695001CCAF72BD0FE2F29D0F5
:10111000660F771F881FBB1F261737074807AB07C7
:10112000B0E809F0BB0B802DBF01FF2793585F4F3C
:101130003AF09E3F510578F00C943A070C948507DD
:101140005F3FE4F3983ED4F3869577956795B7951E
:10115000F7959F5FC9F7880F911D9695879597F929
:101160000895E1E0660F771F881FBB1F62177307A2
:101170008407BA0720F0621B730B840BBA0BEE1FB7
:1011800088F7E09508950E946A0788F09F5798F0C5
:10119000B92F9927B751B0F0E1F0660F771F881F7C
:1011A000991F1AF0BA95C9F714C0B13091F00E9496
:1011B0008407B1E008950C948407672F782F88275F
:1011C000B85F39F0B93FCCF3869577956795B395BD
:1011D000D9F73EF490958095709561957F4F8F4F2C
:1011E0009F4F08950E94A90608F48FEF089597FB7A
:1011F000072E16F4009407D077FD09D00E940B0942
:1012000007FC05D03EF4909581959F4F0895709509
:1012100061957F4F0895AA1BBB1B51E107C0AA1F10
:10122000BB1FA617B70710F0A61BB70B881F991F87
:101230005A95A9F780959095BC01CD010895EE0FC0
:10124000FF1F0590F491E02D0994CF93DF93823036
:10125000910510F482E090E0E0912202F0912302E7
:1012600020E030E0C0E0D0E0309711F140815181C2
:1012700048175907C0F04817590761F482819381D4
:10128000209719F09B838A832BC09093230280932D
:10129000220226C02115310519F04217530718F410
:1012A0009A01BE01DF01EF010280F381E02DDCCF66
:1012B0002115310509F1281B390B2430310590F433
:1012C00012968D919C9113976115710521F0FB0188
:1012D0009383828304C09093230280932202FD01B2
:1012E000329644C0FD01E20FF31F81939193225087
:1012F00031092D933C933AC0209120023091210274
:10130000232B41F420910C0130910D0130932102E7
:101310002093200220910A0130910B012115310503
:1013200041F42DB73EB740910E0150910F01241B9F
:10133000350BE0912002F0912102E217F307A0F4AF
:101340002E1B3F0B2817390778F0AC014E5F5F4F1B
:101350002417350748F04E0F5F1F5093210240932A
:1013600020028193919302C0E0E0F0E0CF01DF9191
:10137000CF9108950F931F93CF93DF93009709F4B4
:101380008CC0FC01329713821282009122021091CC
:1013900023020115110581F420813181820F931FF1
:1013A00020912002309121022817390779F5F09316
:1013B0002102E093200271C0D80140E050E0AE1756
:1013C000BF0750F412962D913C911397AD01211552
:1013D000310509F1D901F3CF9D01DA01338322836D
:1013E00060817181860F971F8217930769F4EC0162
:1013F00028813981260F371F2E5F3F4F318320838D
:101400008A819B8193838283452B29F4F093230265
:10141000E093220242C01396FC93EE931297ED01E3
:10142000499159919E01240F351FE217F30771F47A
:1014300080819181840F951F029611969C938E93C3
:101440008281938113969C938E931297E0E0F0E053
:10145000D80112968D919C911397009719F0F8017D
:101460008C01F6CF8D919C9198012E5F3F4F820F9A
:10147000931F20912002309121022817390769F427
:10148000309729F4109223021092220202C0138294
:1014900012821093210200932002DF91CF911F91BD
:1014A0000F910895A0E0B0E0E8E5FAE00C948F0712
:1014B000EC01009721F4CB010E942509B8C0FC0182
:1014C000E60FF71F9C0122503109E217F30708F4D9
:1014D000ACC0D9010D911C91119706171707B0F0F8
:1014E0000530110508F49FC0C801049786179707B7
:1014F00008F499C002501109061B170B01931193B0
:101500006D937C93CF010E94BA098DC05B01A01A34
:10151000B10A4C01800E911EA0912202B0912302CB
:1015200040E050E0E12CF12C109709F44AC0A815D6
:10153000B905D1F56D907C901197630182E0C80EDA
:10154000D11CCA14DB0480F1A3014A195B096A01AA
:1015500082E0C80ED11C1296BC9012971396AC91E3
:10156000B5E0CB16D10440F0B282A383518340830F
:10157000D9016D937C930AC00E5F1F4FC301800F8A
:10158000911FF90191838083EB2DFA2FE114F1046F
:1015900031F0D7011396FC93EE93129744C0F09369
:1015A0002302E09322023FC08D919C91119748172E
:1015B000590708F4AC017D0112960D90BC91A02D45
:1015C000B3CF809120029091210288159905E1F412
:1015D00046175707C8F480910A0190910B010097B4
:1015E00041F48DB79EB740910E0150910F01841BBD
:1015F000950BE817F907C8F4F0932102E093200255
:10160000F901718360830FC0CB010E9425097C0121
:10161000009759F0A801BE010E94210BCE010E9443
:10162000BA09C70104C0CE0102C080E090E0CDB786
:10163000DEB7EEE00C94AB0781E090E0F8940C94F8
:10164000310BFB01DC0102C001900D924150504072
:10165000D8F70895FB01DC0101900D920020E1F71D
:10166000089510E0C2E6D0E004C0FE010E941F0908
:0C1670002196C336D107C9F7F894FFCFCC
:10167C00FC01FC010708090105060000240280009A
:10168C00000000006401CD00FC00AB012D010B013A
:06169C001F010D0A000011
:107800000C94343C0C94513C0C94513C0C94513CE1
:107810000C94513C0C94513C0C94513C0C94513CB4
:107820000C94513C0C94513C0C94513C0C94513CA4
:107830000C94513C0C94513C0C94513C0C94513C94
:107840000C94513C0C94513C0C94513C0C94513C84
:107850000C94513C0C94513C0C94513C0C94513C74
:107860000C94513C0C94513C11241FBECFEFD8E036
:10787000DEBFCDBF11E0A0E0B1E0ECE9FFE702C060
:1078800005900D92A230B107D9F712E0A2E0B1E065
:1078900001C01D92AD30B107E1F70E942D3D0C945F
:1078A000CC3F0C94003C982F959595959595959582
:1078B000905D8F708A307CF0282F295A8091C0000B
:1078C00085FFFCCF9093C6008091C00085FFFCCF60
:1078D0002093C6000895282F205DF0CF982F809127
:1078E000C00085FFFCCF9093C6000895EF92FF92F1
:1078F0000F931F93EE24FF2487018091C00087FD22
:1079000017C00894E11CF11C011D111D81E4E8164B
:1079100082E4F8068FE0080780E0180770F3E09132
:107920000401F091050109958091C00087FFE9CF1E
:107930008091C6001F910F91FF90EF9008950E94D3
:10794000763C982F8091C00085FFFCCF9093C600B5
:1079500091362CF490330CF09053892F089597555D
:10796000892F08951F930E949F3C182F0E949F3CCF
:107970001295107F810F1F9108951F93182F882350
:1079800021F00E94763C1150E1F71F9108951F935A
:10799000182F0E94763C803249F0809103018F5F5E
:1079A000809303018530C1F01F9108958091C0003C
:1079B00085FFFCCF84E18093C6008091C00085FFE5
:1079C000FCCF1093C6008091C00085FFFCCF80E102
:1079D0008093C6001F910895E0910401F091050184
:1079E00009951F9108950E94763C803241F0809164
:1079F00003018F5F80930301853081F008958091AA
:107A0000C00085FFFCCF84E18093C6008091C00058
:107A100085FFFCCF80E18093C6000895E0910401CA
:107A2000F09105010995089540E951E08823A1F0FE
:107A30002D9A28EE33E0FA013197F1F721503040CA
:107A4000D1F72D9828EE33E0FA013197F1F7215064
:107A50003040D1F7815061F708953F924F925F9285
:107A60006F927F928F929F92AF92BF92CF92DF924E
:107A7000EF92FF920F931F93CF93DF93000080E16B
:107A80008093C4001092C50088E18093C10086E015
:107A90008093C2005098589A259A81E00E94143D24
:107AA00024E1F22E9EE1E92E85E9D82E0FE0C02ECA
:107AB00010E1B12EAA24A394B1E49B2EA6E58A2E50
:107AC000F2E57F2EE0E26E2E79E4572E63E5462E36
:107AD00050E5352E0E94763C8033B1F18133B9F107
:107AE000803409F46FC0813409F476C0823409F41B
:107AF00085C0853409F488C0803531F1823521F1A3
:107B0000813511F1853509F485C0863509F48DC0BC
:107B1000843609F496C0843709F403C1853709F423
:107B200072C1863709F466C0809103018F5F80932C
:107B30000301853079F6E0910401F0910501099582
:107B40000E94763C803351F60E94F33CC3CF0E94E2
:107B5000763C803249F78091C00085FFFCCFF092DF
:107B6000C6008091C00085FFFCCF9092C600809136
:107B7000C00085FFFCCF8092C6008091C00085FFC9
:107B8000FCCF7092C6008091C00085FFFCCF609250
:107B9000C6008091C00085FFFCCF5092C600809146
:107BA000C00085FFFCCF4092C6008091C00085FFD9
:107BB000FCCF3092C6008091C00085FFFCCFB09210
:107BC000C60088CF0E94763C863808F4BDCF0E945C
:107BD000763C0E94F33C7ECF0E94763C803809F4CC
:107BE0009CC0813809F40BC1823809F43CC1883942
:107BF00009F48FC080E00E94C73C6CCF84E10E94F2
:107C0000BD3C0E94F33C66CF85E00E94BD3C0E94D3
:107C1000F33C60CF0E94763C809306010E94763C44
:107C2000809307010E94F33C55CF0E94763C80333D
:107C300009F41DC183E00E94BD3C80E00E94C73C66
:107C400049CF0E94763C809309020E94763C809343
:107C5000080280910C028E7F80930C020E94763C79
:107C6000853409F415C18091080290910902892B8D
:107C700089F000E010E00E94763CF801E85FFE4FDA
:107C800080830F5F1F4F80910802909109020817AF
:107C9000190788F30E94763C803209F045CF809125
:107CA0000C0280FF01C16091060170910701660F0F
:107CB000771F7093070160930601A0910802B091AD
:107CC00009021097C9F0E8E0F1E09B01AD014E0F09
:107CD0005F1FF999FECF32BD21BD819180BDFA9A17
:107CE000F99A2F5F3F4FE417F50799F76A0F7B1F4B
:107CF00070930701609306018091C00085FFFCCF5F
:107D0000F092C6008091C00085FFFCCFB092C60003
:107D1000E1CE83E00E94C73CDDCE82E00E94C73CFA
:107D2000D9CE0E94763C809309020E94763C8093D3
:107D300008028091060190910701880F991F909386
:107D40000701809306010E94763C853409F4A6C0A1
:107D500080910C028E7F80930C020E94763C8032D0
:107D600009F0B8CE8091C00085FFFCCFF092C6002C
:107D7000609108027091090261157105B9F140E046
:107D800050E080910C02A82FA170B82FB27011C0E2
:107D9000BB2309F45CC0E0910601F0910701319624
:107DA000F0930701E09306014F5F5F4F46175707B7
:107DB000E8F4AA2369F3F999FECF209106013091E6
:107DC000070132BD21BDF89A90B58091C00085FFB2
:107DD000FCCF9093C6002F5F3F4F30930701209355
:107DE00006014F5F5F4F4617570718F38091C00099
:107DF00085FDE5CE8091C00085FFF8CFE0CE81E023
:107E00000E94C73C67CE0E94763C803209F08CCE3F
:107E10008091C00085FFFCCFF092C6008091C00029
:107E200085FFFCCFE092C6008091C00085FFFCCFAB
:107E3000D092C6008091C00085FFFCCFC092C600E2
:107E40008091C00085FFFCCFB092C60043CEE09188
:107E50000601F091070194918091C00085FFFCCF4D
:107E60009093C6009CCF80E10E94C73C33CE0E9415
:107E7000763C0E94763C182F0E94763C112309F430
:107E800083C0113009F484C08FE00E94C73C22CE29
:107E900080910C02816080930C02E5CE80910C02EF
:107EA000816080930C0259CF809107018823880F4D
:107EB000880B8A2180930B02809106019091070123
:107EC000880F991F90930701809306018091080203
:107ED00080FF09C080910802909109020196909359
:107EE000090280930802F894F999FECF1127E091D6
:107EF0000601F0910701C8E0D1E08091080290915D
:107F00000902103091F40091570001700130D9F34B
:107F100003E000935700E89500915700017001308D
:107F2000D9F301E100935700E89509901990009169
:107F3000570001700130D9F301E000935700E89534
:107F40001395103498F011270091570001700130FB
:107F5000D9F305E000935700E895009157000170B0
:107F60000130D9F301E100935700E895329602976A
:107F700009F0C7CF103011F00296E5CF112480919F
:107F8000C00085FFB9CEBCCE8EE10E94C73CA2CD19
:0C7F900085E90E94C73C9ECDF894FFCF0D
:027F9C00800063
:040000030000780081
:00000001FF